:02000000392A9B
:100006008316031398180928000003288312031780
:080016004C08031399000800D7
:10001E0083120313FB01FA01F9018030F800F10C91
:10002E00F00C031C23287408F90775080318750FC4
:10003E00FA070318FB0A0310F01F2B287408FA079F
:10004E0075080318750FFB07FB0CFA0CF90CF80C6E
:10005E00031C16287B08F3007A08F2007908F100D9
:06006E007808F000080014
:1000740083120317CA01480884000008C90049080C
:10008400003A031950284908CC0003200317CA0A70
:0E0094004A08480784000008C90041280800F7
:0C00A20083120313950117129712080037
:0E00AE008316031368088A00670882000800A2
:1000BC00831203131A08F100981C662818121816DC
:0600CC007108F0000800BD
:1000D200831203174808393C031C76283030480243
:0E00E200031C76280130F0007728F00108009A
:0E00F0000030831203138C1A0130F000080058
:1000FE00831603136F088400000883120317C200CF
:10010E00C3010030C30000304306031D9028203089
:10011E00420603199B2800304306031D9828093018
:10012E00420603199B289F2883160313EF0A7F2884
:10013E0083120317C401C501C601C701003043066F
:10014E00031DAB282D304206031DB428C60A031921
:10015E00C70A83160313EF0AC12800308312031750
:10016E004306031DBC282B304206031DC1288316EF
:10017E000313EF0A831603136F088400000883121B
:10018E000317C200C3010030C3004208C800692033
:10019E0070080319F0284408F0004508F1000A30F1
:1001AE00F4000030F5000F20303003174202F20049
:1001BE000030031C013E4302F30072087007C400B6
:1001CE0071080318013E7307C50083160313EF0A67
:1001DE00C12883120317460847040319FF28440851
:1001EE00003CF0004508031C013EF101F102032919
:0A01FE004408F0004508F100080075
:1002080083120317C501C60144080319522944087B
:10021800FF3A03191029C40378207008003A031D17
:10022800162910295E2070088316EF008312031721
:1002380045084207840070088000C50A460843073D
:1002480084000008831603136F06031D2F298312E9
:100258000317C60A3D2983120317C6014308840001
:100268000008831603136F06031D3D298312031725
:10027800C60A831203174608430784000008003A99
:10028800031D512946084502F000F101031CF10342
:100298007008420784008001552908294208840013
:0402A80080010800C9
:1002AC0083160313981690308312980083168717C1
:1002BC00071383128C1E65291A08F0005F290800A9
:1002CC00831203174208F2004408F0004508F100BD
:1002DC000130C402031CC5037008710403197C2986
:1002EC007208840043088000F20A6A294208F00070
:0202FC000800F8
:1002FE0083160313071583121211F03097050800A9
:10030E00831603130711831212150C30970408007D
:10031E004D3083120317C8003A200D30CC00032055
:10032E000A300317CC00032083166F08323A031DE0
:10033E00A829831212149210A6308316920051200F
:10034E00F32983166F08643A031DB529831212141C
:10035E0092105330831692005120F32900308316E9
:10036E00EF1BFF30F00000307006031DC0299630E1
:10037E006F06031DCA29831212109210F9308316CC
:10038E0092005120F32900308316EF1BFF30F0004E
:10039E0000307006031DD529C8306F06031DDF29F6
:1003AE00831212109210C730831692005120F32937
:1003BE0000308316EF1BFF30F00000307006031D77
:1003CE00EA29FA306F06031DF329831212109210D8
:0A03DE00A53083169200512008009C
:1003E80057208A110A128000840AE70A0319E80ACA
:0803F800F003031DF4290800C5
:10040000831603131208013EF000F1010318F10AEC
:100410006F08F400F5010F200630F2007008F400B8
:100420007108F500720803191A2AF50CF40CF5137B
:10043000FF3E132A0430F1007408F000710803191C
:10044000252AF00D7010FF3E1F2A30307005F30092
:100450007408F0007508F100F10CF00CF113F10CC8
:10046000F00CF113700895000F309705730897048E
:02047000080082
:100472002E24872120088316EF00002233308316B2
:100482009900181556212F300317C8003A200D3055
:10049200CC0003200A300317CC0003200630FB00F7
:1004A2001330FC00AD30FD00FD0B552AFC0B552A24
:1004B200FB0B552A0000000083168601C930831207
:1004C2000317C8003A200D30CC0003200A3003176E
:1004D200CC0003200630FB001330FC00AD30FD00E1
:1004E200FD0B712AFC0B712AFB0B712A0000000024
:1004F200782070080319AB2A10300317C2006D3040
:10050200C3003230C40004211030C8003A20063043
:10051200FB001330FC00AD30FD00FD0B8E2AFC0BFE
:100522008E2AFB0B8E2A0000000010308316031364
:10053200EF007F20700883160313E9007108EA00B8
:10054200103083120317C200C3013230C4000030DE
:10055200C50066210317A030C8003A200D30CC0038
:1005620003200A300317CC0003200630FB001330AF
:10057200FC00AD30FD00FD0BBC2AFC0BBC2AFB0BC2
:10058200BC2A000000005E207008EF007008643A88
:100592000319D02A6F08673A0319D02AD42A6F08A0
:1005A2008316ED00D52AC42A83166D08643A031D0A
:1005B200F62A83120614BA300317C8003A200D3007
:1005C200CC0003200A300317CC0003200630FB00C6
:1005D2001330FC00AD30FD00FD0BED2AFC0BED2AC3
:1005E200FB0BED2A00000000112B831206102130B4
:1005F2000317C8003A200D30CC0003200A3003173D
:10060200CC0003200630FB001330FC00AD30FD00AF
:10061200FD0B092BFC0B092BFB0B092B0000000027
:1006220035300317C8003A200D30CC0003200A30C1
:100632000317CC0003200630FB001330FC00AD3062
:10064200FD00FD0B222BFC0B222BFB0B222B0000AF
:1006520000005E207008EF0031307002031C392B5D
:100662006F08393C031C392B6F088316EE003A2BB6
:100672002A2B83166E08EF008F2178207008031949
:10068200912B10300317C2006B30C3003230C4000C
:1006920004211030C8003A200630FB001330FC0061
:1006A200AD30FD00FD0B532BFC0B532BFB0B532BDF
:1006B20000000000103083160313EF007F20700843
:1006C20083160313E9007108EA001030831203173E
:1006D200C200C3013230C4000030C5006621831657
:1006E2000313EB01EC0180306C06F00080306A06E7
:1006F2007002031D7E2B69086B020318912B872160
:100702008230FC00DD30FD00FD0B852BFC0B852BC0
:10071200000000007F218316EB0A0319EC0A742BF8
:040722003A2A922BB2
:10085C00203084004F3083120313F000983083163D
:10086C00E7000330E800F421A03084004730F000AA
:0E087C00E7308316E7000330E800F42108009F
:0207300064342F
:10073200203474346F342034743468346534203493
:0C0742006C3465346634743420340034A8
:0C074E0062346534673469346E34003462
:10075A0064346F346E346E346534723420346C34DD
:10076A0061342034763469347434653473347334C0
:10077A0065342034283431342D3439342934003462
:10078A0020342A342A342A34633468346F3469347E
:10079A0078342034643465342034763469347434DB
:1007AA00653473347334653420342034213421346D
:0C07BA0020342A342A342A34203400343D
:0407C6007134003456
:0407CA007134003452
:1007CE0064346F346E346E346534723420346C3469
:1007DE00613420346434693472346534633474346F
:1007EE0069346F346E342034283464342F346734D3
:0407FE002934003466
:10080200203474346F3420347434683465342034C2
:0E08120072346934673468347434203400342E
:1008200064346F346E346E3465347234203475340D
:100830006E3420346E346F346D3462347234653407
:1008400020346434273469346D34703475346C3436
:0C085000733469346F346E34203400348B
:02400E004A2F37
:00000001FF
