:02000000B02925
:0E000600831203136C088A006B088200080046
:1000140083120313FB01FA01F9018030F800F10C9B
:10002400F00C031C1E287408F90775080318750FD3
:10003400FA070318FB0A0310F01F26287408FA07AE
:1000440075080318750FFB07FB0CFA0CF90CF80C78
:10005400031C11287B08F3007A08F2007908F100E8
:060064007808F00008001E
:10006A00831603135708393C031C422830305702C1
:0E007A00031C42280130F0004328F00108006A
:0E0088000030831203138C1A0130F0000800C0
:10009600831203131A08F100981C53281812181615
:0600A6007108F0000800E3
:1000AC008316031398185C280000562857088312EF
:0400BC00990008009F
:1000C000831603131208013EF000F1010318F10A30
:1000D0005008F400F5010A200630F2007008F40020
:1000E0007108F500720803197A28F50CF40CF51361
:1000F000FF3E73280430F1007408F0007108031902
:100100008528F00D7010FF3E7F2830307005F30019
:100110007408F0007508F100F10CF00CF113F10C0B
:10012000F00CF113700895000F30970573089704D1
:020130000800C5
:1001320003208A110A128000840AEB0A0319EC0ACE
:08014200F003031D99280800D9
:10014A0083160313D201500884000008D100510815
:10015A00003A0319BB285108D70056208316D20A41
:0E016A005208500784000008D100AC2808009D
:1001780083160313071583121211F0309705080030
:1001880083160313981690308312980083168717E6
:10019800071383128C1ED3281A08F000CD280800F4
:1001A80083160313500884000008D100D2010030E0
:1001B800D20000305206031DE328203051060319EF
:1001C800EE2800305206031DEB28093051060319AA
:1001D800EE28F028D00AD428D301D401D501D601BD
:1001E80000305206031DFA282D305106031D01293F
:1001F800D50A0319D60AD00A0A2900305206031D67
:1002080007292B305106031D0A29D00A50088400FB
:100218000008D100D2010030D2005108D7003520A3
:100228007008031933295308F0005408F1000A3004
:10023800F4000030F5000A20303083165102F20035
:100248000030031C013E5202F30072087007D3000D
:1002580071080318013E7307D400D00A0A2955080B
:100268005604031940295308003CF0005408031CA5
:10027800013EF101F10244295308F0005408F1004D
:0202880008006C
:10028A0083160313D401D50152080319852952088C
:10029A00FF3A03195129D20344207008003A031D7A
:1002AA00572951294B2070088316D3005408500748
:1002BA00840070088000D40A550851078400000899
:1002CA005306031D6A29D50A7229D50151088400EB
:1002DA0000085306031D7229D50A550851078400E0
:1002EA000008003A031D842955085402F000F10160
:1002FA00031CF103700850078400800188294929EA
:08030A00500884008001080086
:10031200831603130711831212150C309704080079
:10032200831603135008F2005208F0005308F1003C
:100332000130D202031CD303700871040319A729E8
:100342007208840051088000F20A95295008F000D2
:020352000800A1
:0C03540083120313950117129712080082
:100360008A238312031312109210633083169200B3
:10037000AA2126088316D000602033308316990006
:100380001815C42020308316D000A5200D30D700CA
:1003900056200A308316D70056201530FB004B300C
:1003A000FC00BE30FD00FD0BD329FC0BD329FB0B59
:1003B000D3290000831686012730D000A5200D30F8
:1003C000D70056200A308316D70056200B30FB008A
:1003D0002630FC005D30FD00FD0BEC29FC0BEC2908
:1003E000FB0BEC2900000000831686014B207008EF
:1003F000EF007008643A031D812A0614A0308316AA
:10040000D000A5200D30D70056200A308316D70023
:1004100056202930FB009630FC007F30FD00FD0B9C
:100420000F2AFC0B0F2AFB0B0F2AAF308316D000CC
:10043000A5200D30D70056200A308316D70056204D
:100440001030FB003930FC000D30FD00FD0B262A7A
:10045000FC0B262AFB0B262A000000003030EF00A0
:10046000442070080319772A10308316D0006930B1
:10047000D1003230D20045211030D000A520063006
:10048000FB001330FC00AD30FD00FD0B452AFC0BDA
:10049000452AFB0B452A000000001030D000D42074
:1004A00070088312ED007108EE008316CE01CF01B3
:1004B00080304F06F000803083126E067002031DFC
:1004C000642A6D0883164E020318772A8921823028
:1004D000FC00DD30FD00FD0B6B2AFC0B6B2A0000DD
:1004E0000000BC208316CE0A0319CF0A582A8316AF
:1004F0001030D000D1013230D2000030D300912131
:100500000A2B83126F08673A031D0A2B06103A3034
:100510008316D000A5200D30D70056200A30831650
:10052000D70056200B30FB002630FC005D30FD006C
:10053000FD0B982AFC0B982AFB0B982A0000000060
:1005400048308316D000A5200D30D70056200A3041
:100550008316D70056200B30FB002630FC005D30A0
:10056000FD00FD0BB12AFC0BB12AFB0BB12A0000E8
:1005700000003030EF004420700803190A2B1030BF
:100580008316D0006730D1003230D20045211030C0
:10059000D000A5200630FB001330FC00AD30FD007C
:1005A000FD0BD02AFC0BD02AFB0BD02A0000000048
:1005B0001030D000D42070088312ED007108EE00D6
:1005C00010308316D000D1013230D2000030D30079
:1005D0009121CE01CF0180304F06F0008030831290
:1005E0006E067002031DF72A6D0883164E0203186B
:1005F0000A2B89218230FC00DD30FD00FD0BFE2A34
:10060000FC0BFE2A00000000BC208316CE0A031952
:08061000CF0AEB2AF4290B2BA1
:10071400203084004B3083120313F0001130EB00BF
:100724000330EC009920A03084002E308312F000B6
:0C0734005C30EB000330EC009920080062
:0C06220062346534673469346E3400348F
:02062E0028346E
:10063000633468346F346934783420346434653416
:100640002034643469347234653463347434693406
:060650006F346E3400342B
:10065600203474346F342034743468346534203470
:0C0666006C346534663474342034003485
:1006720064346F346E346E346534723420347534BD
:100682006E3420346E346F346D34623472346534B7
:1006920020346434273469346D34703475346C34E6
:0E06A200733469346F346E34203420340034E5
:0406B000713400346D
:0406B4007134003469
:1006B800203474346F34203474346834653420340E
:0E06C80072346934673468347434203400347A
:1006D60064346F346E346E34653472342034753459
:1006E6006E3420346E346F346D3462347234653453
:1006F60020346434273469346D34703475346C3482
:0E070600733469346F346E3420342034003480
:02400E004A2F37
:00000001FF
