:020000004B2B88
:10000600831203132230FC00F801F901FA01FB0107
:10001600FC03031939280310FB0CFA0CF90CF80C35
:10002600F30CF20CF10CF00C031C0B28FC03031967
:100036002B287408F80775080318750FF907760852
:100046000318760FFA0777080318770FFB070F28B0
:100056007408F80775080318750FF907760803186A
:0E006600760FFA0777080318770FFB070800DC
:100074007B15FB1F44280130F300F201F101F0016C
:08008400FA0DF20CFF30080038
:10008C007B14FB1F5128F201FA1FFF30F200F10024
:0A009C00F000FA0DF20CFF3008002E
:1000A600D03083120313B8000730B900BA01BB0180
:1000B600D030F0000730F1000030F2000030F300DD
:1000C6003608F4003708F500F601F701032070083A
:1000D600B8007108B9007208BA007308BB00003096
:1000E6007302031D802800307202031D802802302F
:1000F6007102031D8028B230700203188328C228BB
:10010600B230F0000230F100F201F3017008B802DB
:100116007108031C710FB9027208031C720FBA0230
:100126007308031C730FBB020530F0007008031937
:10013600A328BB0CBA0CB90CB80CBB13FF3E9A280B
:100146003808F0003908F1003A08F2003B08F300DD
:100156000130B802031CB902031CBA02031CBB021D
:1001660070087104720473040319C22800000000A9
:10017600000000000000000000000000A3280800A6
:0E018600F201F101F001F801F3010030080070
:10019400FB14FB1FD428FF30F300F200F100F00041
:0801A400FA0DF20CFF30080017
:0601AC00FB15FF30080006
:0801B200FA1FF21300300800EF
:0E01BA008312031326088A002508820008001D
:1001C8007C181A29FC18EB287C193929E428A00185
:1001D8007208031D0B297108F2007008F1007808F5
:1001E800F000F801A0157208031D0B297108F20030
:1001F8007008F100F001A01120167208031D0B29E8
:100208007108F200F101A015720803192D292008C0
:10021800F302031D031C31290310F21B1A29F80DE0
:10022800F00DF10DF20DF30B112931297B1B701C18
:100238003529F81F3529F00A0319F10A0319F20ABA
:10024800031D3529F20CF10CF00CF30A03193929B6
:1002580035290130FC00C3203C290230FC003A203B
:100268003C290430FC00D9203C290830FC00CA2075
:04027800000008007A
:10027C008030831203133306F00080307002031DAC
:10028C00492900303202031854293208003CF0008E
:10029C003308031C013EF101F10258293208F00029
:0602AC003308F100080018
:1002B200013083120313B2000030B3001A30FC0085
:1002C200F830FD00FD0B6329FC0B63290000B2012D
:1002D200B3011A30FC00F830FD00FD0B6E29FC0B57
:0602E2006E290000080077
:1002E800013083120313B2000030B3003408B600A3
:1002F8003508B7005320B201B3013408B6003508F9
:06030800B70053200800BD
:10030E0083120313FB0173080319C4297208FA0040
:10031E00F2178E30F302F31FC729F309F30A0830E0
:10032E007302031CAA29F300F10D7208F100F20109
:10033E0008307302031CAA29F300F10DF1017308B2
:10034E00031D0310B22973080319B2290310F20C0E
:10035E00F10CF30BAD297B1B711CBC29031CBC29B2
:10036E00F10A0319F20AF21BD329FA1FD629F20950
:10037E00F109F10A0319F20AD629F201F101D6297F
:10038E007B14FB1FD929F201FA1FD929FF30F20085
:10039E00F100FA0DF20CD9290130FC00DB290030F6
:1003AE00FC00DB29FF30FC00FC080319DF29462086
:0A03BE007108F0007208F100080059
:1003C800831203137408003A031DFF297508003AC5
:1003D800031DFF297608003A031DFF297708003A14
:1003E800031DFF29FF30F000FF30F1007F30F200DD
:1003F800FF30F3009A2A83120313770803198E2A11
:1004080073080319912A720876068039FA00F217E0
:10041800F617A0017208F8007108FC007008FD00CA
:100428007408FD027508031C750FFC027608031C8E
:10043800760FF802F801FC01FD01031C2A2A0310BB
:10044800F20CF10CF00CF80C0130A0007708F30264
:10045800031C342A7E302007F3070318942A392A0C
:100468007E302007F307031C972A1830FA07FD0D82
:10047800FC0DF80DF00DF10DF20DA00D7408F00251
:100488007508031C750FF1027608031C760FF2023B
:10049800760DA004201C522A7D145D2A7408F007EA
:1004A80075080318750FF10776080318760AF2071E
:1004B8007D10FA031F307A05031D3B2A7B1B7D1C28
:1004C800842A0310F00DF10DF20DA00D7408F0024E
:1004D8007508031C750FF1027608031C760FF202EB
:1004E800760D20040139FD070318FC0A0319F80AE0
:1004F800031D842AF80CFC0CFD0CF30A0319942A3A
:10050800FA1FF8137808F2007C08F1007D08F00063
:100518000030992A0130D620992A0230C320992A1E
:0E0528000430CA20992A08303A20000008004A
:10053600831203132108F4002208F5002308F600AD
:100546002408F7002A08F0002B08F1002C08F20016
:100556002D08F300E42187217008AE007108AF0072
:100566008030F200803071067202031DBC2A7008CA
:10057600003C0318E32AB001B10180303106F000D7
:1005860080302F067002031DCA2A2E083002031877
:10059600E22A2808B2002908B3002A08F0002B082E
:1005A600F1002C08F2002D08F30087217008B40032
:1005B6007108B5007421B00A0319B10AC02A0C2BC0
:1005C600B001B1012E08B2002F08B3003E218030E1
:1005D6003106F200803071067202031DF42A70089B
:1005E600300203180C2B2808B2002908B3002A0889
:1005F600F0002B08F1002C08F2002D08F3008721EB
:100606007008B4007108B5005921B00A0319B10A7F
:04061600E52A0800C9
:10061A00831203137008F800FB01FC019E30F300FB
:10062A00FA01F201F101F0010230FC00E4200800B5
:10063A00831203131A08F100981C252B1812181696
:06064A007108F000080039
:100650008316031398169030831298008316871719
:10066000071383128C1E372B1A08F000312B080059
:10067000DD208A110A128000840AA50A0319A60A3D
:08068000F003031D382B0800F4
:0E0688000030831203138C1A0130F0000800BA
:10069600663083120313A1006630A2006630A30001
:1006A6007F30A4003330831699001815282344237D
:1006B60070080319AE2B1D237008A7007008583A5E
:1006C60003196A2B2708783A03196A2B7B2B1D23FB
:1006D6000D23003005180130A800A9017008AA00F2
:1006E6007108AB007208AC007308AD009B22AE2BFC
:1006F6002708593A0319842B2708793A0319842BBA
:10070600952B1D230D23003085180130A800A90163
:100716007008AA007108AB007208AC007308AD003F
:100726009B22AE2B27085A3A03199E2B27087A3AA2
:1007360003199E2BAE2B1D230D2300300519013006
:10074600A800A9017008AA007108AB007208AC00E5
:0A0756007308AD009B225A2BAF2B55
:02400E004A2F37
:00000001FF
